:100000000C9462000C948A000C948A000C948A0070
:100010000C948A000C948A000C948A000C948A0038
:100020000C948A000C948A000C948A000C94790435
:100030000C948A000C948A000C948A000C948A0018
:100040000C94D7030C948A000C9447040C9421045C
:100050000C948A000C948A000C948A000C948A00F8
:100060000C948A000C948A000000000024002700F1
:100070002A0000000000250028002B0000000000DE
:1000800023002600290004040404040404040202DA
:100090000202020203030303030301020408102007
:1000A0004080010204081020010204081020000012
:1000B0000008000201000003040700000000000027
:1000C0000000030D11241FBECFEFD8E0DEBFCDBF6F
:1000D00012E0A0E0B1E0EAE9F4E202C005900D927E
:1000E000A435B107D9F723E0A4E5B2E001C01D9221
:1000F000AD37B207E1F710E0C2E6D0E004C02197C7
:10010000FE010E943E12C136D107C9F70E94670D59
:100110000C944B120C940000833081F028F4813051
:1001200099F08230A9F008958730A9F08830C9F09D
:100130008430B1F4809180008F7D03C08091800075
:100140008F7780938000089584B58F7784BD08955C
:1001500084B58F7DFBCF8091B0008F778093B00006
:1001600008958091B0008F7DF9CFCF93DF93282F32
:1001700030E0F901E255FF4F8491F901E656FF4F57
:10018000D491F901EA57FF4FC491CC23A1F081111A
:100190000E948C00EC2FF0E0EE0FFF1FE458FF4FA1
:1001A000A591B491EC91ED2381E090E009F480E019
:1001B000DF91CF91089580E090E0FACF1F93CF9325
:1001C000DF93282F30E0F901E255FF4F8491F901C8
:1001D000E656FF4FD491F901EA57FF4FC491CC2363
:1001E000A9F0162F81110E948C00EC2FF0E0EE0F89
:1001F000FF1FEE58FF4FA591B4918FB7F894EC9183
:10020000111108C0D095DE23DC938FBFDF91CF9111
:100210001F910895DE2BF8CFCF93DF9390E0FC0180
:10022000E656FF4F24918A579F4FFC018491882303
:10023000C9F090E0880F991FFC01E859FF4FA59184
:10024000B491FC01EE58FF4FC591D49161110DC0DE
:100250009FB7F8948C91209582238C9388812823D2
:1002600028839FBFDF91CF910895623051F49FB7EB
:10027000F8943C91822F809583238C93E8812E2BD8
:10028000EFCF8FB7F894EC912E2B2C938FBFEACF42
:100290002FB7F8946091B6027091B7028091B802BE
:1002A0009091B9022FBF0895AF92BF92CF92DF9283
:1002B000EF92FF920F931F93CF93DF936C017B011B
:1002C0008B01040F151FEB015E01AE18BF08C017AC
:1002D000D10759F06991D601ED91FC910190F0811F
:1002E000E02DC6010995892B79F7C501DF91CF91E2
:1002F0001F910F91FF90EF90DF90CF90BF90AF9044
:100300000895FC01538D448D252F30E0842F90E01B
:10031000821B930B541710F0CF9608950197089500
:10032000FC01918D828D981761F0A28DAE0FBF2FC9
:10033000B11D5D968C91928D9F5F9F73928F90E01F
:1003400008958FEF9FEF0895FC01918D828D98178E
:1003500031F0828DE80FF11D858D90E008958FEFCB
:100360009FEF0895FC01918D228D892F90E0805C94
:100370009F4F821B91098F73992708958AEB92E012
:100380000E94B20121E0892B09F420E0822F089518
:1003900080E090E0892B29F00E94BE0181110C942D
:1003A00000000895FC01A48DA80FB92FB11DA35A18
:1003B000BF4F2C91848D90E001968F739927848F85
:1003C000A689B7892C93A089B1898C9183708064A8
:1003D0008C93938D848D981306C00288F389E02D49
:1003E00080818F7D80830895EF92FF920F931F93FA
:1003F000CF93DF93EC0181E0888F9B8D8C8D9813D8
:100400001AC0E889F989808185FF15C09FB7F894E3
:10041000EE89FF896083E889F9898081837080642F
:1004200080839FBF81E090E0DF91CF911F910F917A
:10043000FF90EF900895F62E0B8D10E00F5F1F4F89
:100440000F731127E02E8C8D8E110CC00FB607FC98
:10045000FACFE889F989808185FFF5CFCE010E9426
:10046000D201F1CFEB8DEC0FFD2FF11DE35AFF4FC1
:10047000F0829FB7F8940B8FEA89FB8980818062B4
:10048000CFCFCF93DF93EC01888D8823B9F0AA8971
:10049000BB89E889F9898C9185FD03C0808186FD3F
:1004A0000DC00FB607FCF7CF8C9185FFF2CF80818E
:1004B00085FFEDCFCE010E94D201E9CFDF91CF9130
:1004C0000895CF92DF92EF92FF920F931F93CF93F5
:1004D000DF93EC010E9448016B017C0188810E943E
:1004E000B5009C018E8191E0811104C0232B21F481
:1004F00090E002C0232BE1F74E855F8568897989FA
:1005000097018601041B150B260B370B49815A8175
:100510006B817C81041715072607370778F4198645
:10052000CA86DB86EC86FD868F81DF91CF911F9195
:100530000F91FF90EF90DF90CF9008958F81888783
:100540009F83292F28272987981751F3CE86DF8686
:10055000E88AF98AE5CFCF93DF93EC018D8160E0E3
:10056000811162E088810E940C0188810E94B5009F
:100570009C0181E02115310509F480E08F838E8193
:10058000882329F091E0232B09F090E09F830E94BB
:1005900048016A877B878C879D872F8128871986EA
:1005A0006E877F87888B998BDF91CF91089580919B
:1005B0000201909103010196873091052CF49093EC
:1005C0000301809302010895109203011092020129
:1005D0000895CF93DF9360910401C62FD0E061703E
:1005E00087E00E94DE00BE0175956795617088E026
:1005F0000E94DE00BE0175956795759567956170DF
:100600008CE00E94DE0023E0D595C7952A95E1F79E
:100610006C2F61708AE0DF91CF910C94DE00FC01B9
:1006200001900020E9F73197AF01481B590BBC013D
:100630008AEB92E00C9454018F929F92AF92BF92FA
:100640000F931F93CF93DF93CDB7DEB7A1970FB66C
:10065000F894DEBF0FBECDBF19A2423008F44AE0C5
:100660008E010F5D1F4F842E912CB12CA12CA50162
:1006700094010E94FD11E62FB901CA01EA30F4F499
:10068000E05DD801EE938D01232B242B252B79F7E8
:1006900090E080E0109719F0CD010E940F03A19621
:1006A0000FB6F894DEBF0FBECDBFDF91CF911F9183
:1006B0000F91BF90AF909F908F900895E95CE1CF2C
:1006C000CF93DF930E940F03EC0188E291E00E9438
:1006D0000F038C0F9D1FDF91CF9108950C940F0392
:1006E000CF92DF92EF92FF92CF93DF936C01990F3D
:1006F000EE08FF08F7FE19C06DE28AEB92E00E9457
:10070000F401EC0166277727CB016C197D098E096E
:100710009F094AE00E941C038C0F9D1FDF91CF911F
:10072000FF90EF90DF90CF9008954AE0C701B601A7
:10073000DF91CF91FF90EF90DF90CF900C941C034E
:10074000CF93DF930E947003EC0188E291E00E9456
:100750000F038C0F9D1FDF91CF910895909104019D
:100760008823D9F09C3020F49F5F9093040103C04C
:1007700081E09C30C9F00E94E9028BE291E00E9486
:100780006E036091040170E090E080E04AE00E9416
:100790001C0388E291E00C940F03923010F091500A
:1007A000E4CF913041F78CE080930401E4CF1F92B5
:1007B0000F920FB60F9211242F933F938F939F9315
:1007C000AF93BF938091B6029091B702A091B80207
:1007D000B091B9023091B50223E0230F2D3758F5BF
:1007E0000196A11DB11D2093B5028093B60290938E
:1007F000B702A093B802B093B9028091B102909170
:10080000B202A091B302B091B4020196A11DB11D34
:100810008093B1029093B202A093B302B093B4025A
:10082000BF91AF919F918F913F912F910F900FBEEC
:100830000F901F90189526E8230F0296A11DB11D59
:10084000D2CF1F920F920FB60F9211242F933F9386
:100850004F935F936F937F938F939F93AF93BF93C8
:10086000EF93FF938AEB92E00E94D201FF91EF9108
:10087000BF91AF919F918F917F916F915F914F91B8
:100880003F912F910F900FBE0F901F9018951F92C0
:100890000F920FB60F9211242F938F939F93EF9384
:1008A000FF93E091CA02F091CB028081E091D002E7
:1008B000F091D10282FD1BC090818091D3028F5FA5
:1008C0008F732091D402821741F0E091D302F0E0BF
:1008D000E654FD4F958F8093D302FF91EF919F9146
:1008E0008F912F910F900FBE0F901F9018958081C0
:1008F000F4CF1F920F920FB60F9211244F925F9276
:100900006F927F928F929F92AF92BF92CF92DF921F
:10091000EF92FF920F931F932F933F934F935F9309
:100920006F937F938F939F93AF93BF93CF93DF93F7
:10093000EF93FF93E0910401E150E03108F08EC1A4
:10094000F0E0E355FB4F4090580250905902609000
:100950005A0270905B020C943E12BD0420059A0569
:10096000760607079F0701084908A80803095809E0
:10097000A509C209120A940AFF0A80919B0290916C
:100980009C0260919702709198022091930230919D
:100990009402E0919B02F0919C0240919702509149
:1009A00098025301420104C0B594A7949794879488
:1009B0008A95D2F7C40184217301620104C0F594C1
:1009C000E794D794C7946A95D2F7C428582F5C0D42
:1009D0002F5F3F4FD301C20104C0B595A7959795EE
:1009E00087952A95D2F785236301520104C0D594D7
:1009F000C794B794A7944A95D2F7A49C402D11248C
:100A000004C07594679457944794EA95D2F74422AA
:100A1000482A409257028AE090E090930F01809319
:100A20000E011092AE021092AD028EE090E0909313
:100A30000D0180930C0110929A021092990206C146
:100A400001E0401651046006710464F080E090E01B
:100A5000AFEFBFEF8093580290935902A0935A02D0
:100A6000B0935B028091580290915902A0915A0272
:100A7000B0915B02209193023091940280909B028E
:100A800090909C02E0909702F090980260919702FB
:100A900070919802E0919B02F0919C025C016D01C3
:100AA00004C0D594C794B794A7942A95D2F785012A
:100AB000092C000CAA08BB0808294C015D010A2E6C
:100AC00004C0B594A794979487940A94D2F7082900
:100AD0006F5F7F4F04C0B595A795979587956A95E9
:100AE000D2F741E04E0F84230E9D800D1124809398
:100AF00057028CE090E090930F0180930E011092CA
:100B0000AE021092AD0224E130E030930D0120934B
:100B10000C0124E030E030939A02209399029093E4
:100B20000B0180930A0185E090E0909396028093F8
:100B3000950294C080919302909194027301620196
:100B400004C0F594E794D794C7948A95D2F7C60168
:100B5000242D2572922F982720919B0230919C0280
:100B6000B301A20104C075956795579547952A95DD
:100B7000D2F74425440D20919B0230919C025301F1
:100B8000420104C0B594A794979487942A95D2F70C
:100B900095018401E6E0CE2ED12CE12CF12C012B25
:100BA000022B032B29F072E0C72ED12CE12CF12C63
:100BB00020919702309198025301420104C0B594EC
:100BC000A794979487942A95D2F784010C21842FB7
:100BD000409E8019112493018201000F111F221FD2
:100BE000331F4091970250919802052E000C660B1E
:100BF000770B4421552166217721452B462B472B26
:100C000009F46CC054E075946794579447945A95CE
:100C1000D1F740224826492A409257028EE190E0BF
:100C200090930F0180930E0186E090E09093AE02C6
:100C30008093AD0280E190E090930D0180930C01D0
:100C400010929A02109299028AE090E090930B0120
:100C500080930A0110929602109295028091B00240
:100C6000882321F08091AF02811172C5809100012B
:100C700090910101181619060CF03FC50197909349
:100C80000101809300018091580290915902A09136
:100C90005A02B0915B02E0910201F0910301E73149
:100CA000F10508F03CC5E95AF94F0C943E128C0B43
:100CB000520C6B0C740C820C9A0CB30CB70CCC0C51
:100CC000D50CEA0C8F0B8F0B8F0B8F0B8F0B8F0BB1
:100CD0008F0B8F0B8F0B8F0B8F0BB30C4AE0759420
:100CE0006794579447944A95D1F793CFA091970270
:100CF000B091980200919B0210919C02E0919302A6
:100D0000F0919402A30192010E94F511AB01BC0184
:100D100004C075956795579547950A95D2F785E272
:100D20008E1B8421682F6427D301C2012BE0B59567
:100D3000A795979587952A95D1F78425482F440D37
:100D4000D301C20136E0B595A795979587953A9559
:100D5000D1F7892B8A2B8B2B09F048C080919B02FD
:100D600090919C02092E000CAA0BBB0B20919302C0
:100D700030919402E0919702F09198022E0F3F1F5C
:100D80006301520104C0D594C794B794A7942A95DF
:100D9000D2F78A21489E40191124842F93018201A1
:100DA000000F111F221F331F7301620146E0C4228E
:100DB000DD24EE24FF24CD28CE28CF28E1F0B4E0B6
:100DC0007594679457944794BA95D1F74022482672
:100DD000462A409257028CE090E090930F01809356
:100DE0000E011092AE021092AD0224CF82E090E08C
:100DF000A0E0B0E0BBCF409193025091940204C0B8
:100E000075946794579447944A95D2F7DFCFA09191
:100E10009302B0919402E0919702F0919802A3019D
:100E200092010E94F511AB01BC01F2E07595679546
:100E300057954795FA95D1F78EE18E1B8421682F3F
:100E4000642780919702909198025301420104C057
:100E5000B594A794979487948A95D2F7C401842572
:100E6000840D93018201A6E0359527951795079586
:100E7000AA95D1F7012B022B032B09F44FC0409107
:100E80009B0250919C0220919B0230919C02630135
:100E9000520104C0D594C794B794A7942A95D2F769
:100EA00085010423049D8019112473016201CC0C77
:100EB000DD1CEE1CFF1C0091970210919802012E80
:100EC000000C220B330B0421152126213721012B85
:100ED000022B032B41F124E07594679457944794B7
:100EE0002A95D1F74C204826462A4092570288E19D
:100EF00090E090930F0180930E011092AE02109239
:100F0000AD0286E190E090930D0180930C01109268
:100F10009A021092990280E190E098CE409193025B
:100F200050919402B0CF209193023091940204C06A
:100F300075946794579447942A95D2F7D3CF8091AC
:100F40009B0290919C0260919B0270919C02209167
:100F50009B0230919C024091930250919402E09147
:100F60009702F09198027301620104C0F594E7942E
:100F7000D794C7948A95D2F7C601842153014201C0
:100F800004C0B594A794979487942A95D2F78401C6
:100F90000421800F9301820104C035952795179590
:100FA00007956A95D2F7801B6301520104C0D5945E
:100FB000C794B794A7944A95D2F7A5014E23449DB0
:100FC000800D1124809357028AE090E090930F01E6
:100FD00080930E0183E090E09093AE028093AD0287
:100FE0002CE130E030930D0120930C0110929A0215
:100FF000109299022EE030E030930B0120930A0109
:1010000094CD80919702909198027301620104C07F
:10101000F594E794D794C7948A95D2F7D701C6017F
:1010200084219521A621B721892B8A2B8B2B29F08E
:1010300080919B0290919C020CC0809193029091B0
:1010400094027094609450944094411C511C611C13
:10105000711C04C075946794579447948A95D2F78D
:10106000409257028AE090E090930F0180930E0126
:101070001092AE021092AD0226E130E030930D01E5
:1010800020930C0190939A028093990288E090E05B
:10109000DDCD01E0401651046006710464F080E08B
:1010A00090E0AFEFBFEF8093580290935902A09366
:1010B0005A02B0935B028091580290915902A0911C
:1010C0005A02B0915B0240919B0250919C02C090E9
:1010D0009302D0909402E0919702F09198022091AF
:1010E0009702309198024C015D0104C0B594A79419
:1010F000979487944A95D2F7A4010D2C000CEE0822
:10110000FF084C296C017D010A2E04C0F594E79478
:10111000D794C7940A94D2F74C292F5F3F4F04C04D
:10112000B595A795979587952A95D2F74E9F800DEF
:101130001124809357028CE090E090930F018093EC
:101140000E011092AE021092AD0284E190E06FCCDD
:10115000E0919B02F0919C0220919B0230919C02B5
:1011600080919302909194026091970270919802FD
:1011700040919302509194022823D301C20104C0EC
:10118000B595A795979587952A95D2F793018201F2
:1011900004C03595279517950795EA95D2F7802BCA
:1011A000849D802D1124952D96238923630152015E
:1011B00004C0D594C794B794A7944A95D2F7A501D3
:1011C000442196E075946794579447949A95D1F783
:1011D000442A48264092570280E190E090930F0104
:1011E00080930E011092AE021092AD0286E590E05F
:1011F00090930D0180930C0110929A021092990223
:101200008AE190E023CD8091930290919402209105
:101210009B0230919C024091970250919802730179
:10122000620104C0F594E794D794C7948A95D2F7E5
:10123000E7E0CE9E802D11245301420104C0B594F5
:10124000A794979487942A95D2F78401000F000FF2
:10125000000F802B6301520104C0D594C794B7944A
:10126000A7944A95D2F7AE9E402D1124842B07E017
:1012700075946794579447940A95D1F74822409201
:10128000570288E090E090930F0180930E01109236
:10129000AE021092AD0286E190E090930D01809332
:1012A0000C0110929A02109299028DE090E0CECC3F
:1012B000A0909702B090980200919302109194022E
:1012C000C0909702D0909802E0909B02F0909C0210
:1012D000C301B20126E030E040E050E00E94CB11B3
:1012E00004C05595479537952795AA94D2F72421A0
:1012F0000250104C0C9D002D112414E0759467943D
:10130000579447941A95D1F74E9C402C1124029F74
:10131000400C11244092570288E090E090930F0116
:1013200080930E011092AE021092AD028CE090E01C
:1013300090930D0180930C0184E090E090939A02C9
:101340008093990286E090E081CC80919702909101
:1013500098027301620104C0F594E794D794C7948E
:101360008A95D2F7D701C60184219521A621B721FC
:10137000892B8A2B8B2B09F05BCE80919302909165
:10138000940267CE80919B0290919C0220919702DB
:10139000309198020091930210919402B301A2013E
:1013A00004C075956795579547958A95D2F7449DE2
:1013B000E02D1124D901A30192010E94F511A7E0AB
:1013C0009595879577956795AA95D1F76E23B3E0A4
:1013D000440C551C661C771CBA95D1F704C0759453
:1013E0006794579447940A95D2F7E62FE421E09347
:1013F000570282E190E090930F0180930E012AE062
:1014000030E03093AE022093AD028EE090E09093F6
:101410000D0180930C0181E090E090939A028093FB
:101420009902EACD80919302909194025301420176
:1014300004C0B594A794979487948A95D2F7242DE5
:1014400021702825B301A201E5E1759567955795AF
:101450004795EA95D1F74425440DD301C201F4E044
:10146000B595A79597958795FA95D1F70097A1051A
:10147000B10509F44CC060919702709198020091F7
:101480009B0210919C0215950795ECE0F0E0E01BA3
:10149000F10B7301620104C0F594E794D794C794EB
:1014A000EA95D2F7C622C49C401911247301620147
:1014B000CC0CDD1CEE1CFF1C60919B0270919C0209
:1014C0006C707727672B41F1482E4C204426422A26
:1014D0004092570288E090E090930F0180930E01B4
:1014E0001092AE021092AD0280E190E090930D0157
:1014F00080930C0110929A021092990281E090E080
:1015000090930B0180930A0186E090E00ECB6091EE
:101510009B0270919C02B3CF1AE075946794579424
:1015200047941A95D1F7D1CF20919B0230919C021C
:1015300084E090E002C0880F991F2A95E2F7092EF7
:10154000000CAA0BBB0B84219521A621B721892B66
:101550008A2B8B2B79F12091970230919802809100
:1015600093029091940204C07594679457944794A1
:101570002A95D2F704C075946794579447948A9536
:10158000D2F74092570288E090E090930F01809349
:101590000E011092AE021092AD0289E090E090939D
:1015A0000D0180930C0110929A021092990285E02D
:1015B00090E04CCBB301A201B4E0759567955795C7
:1015C0004795BA95D1F7809193029091940220911A
:1015D00097023091980202C0880F991F2A95E2F76E
:1015E000092E000CAA0BBB0B84219521A621B72143
:1015F000892B8A2B8B2B09F0440C442AC2CF809173
:101600009B0290919C02A301920104C0220F331F00
:10161000441F551F8A95D2F7A5E08A2E912CA12C44
:10162000B12C56FE05C0F6E08F2E912CA12CB12CCA
:1016300080919B0290919C020091930210919402E0
:10164000E0919702F0919802FF2477FCFA94E72C3E
:10165000D62CC52C092E000CAA0BBB0B8C219D216E
:10166000AE21BF2174E0C72ED12CE12CF12CC81A79
:10167000D90AEA0AFB0AC501B4010E942E12A70189
:1016800096010E942E126B017C01A8EFBFEFA3010F
:1016900092010E94F81104C09595879577956795FA
:1016A0000A95D2F7E62304C0F594E794D794C7943B
:1016B000EA95D2F7E6E07594679457944794EA95D3
:1016C000D1F74C284092570287E090E090930F01A9
:1016D00080930E011092AE021092AD0288E090E06D
:1016E00090930D0180930C0181E090E090939A0219
:1016F000809399028FE090E003CF80918F02811157
:10170000C2CA8091080190910901909301018093D0
:1017100000011092AF02B7CAC0915702D0E0029602
:10172000A11DB11D8093580290935902A0935A02B3
:10173000B0935B0280919102909192021816190663
:101740000CF051C101C0CC0F8A95EAF7C093B300E9
:101750008091550290915602019690935602809383
:10176000550222E030E00090050102C0220F331F35
:101770000A94E2F7821793070CF473C01092560292
:10178000109255028091540291E08927809354026F
:1017900080917C02882319F081E00E94AE03C09101
:1017A00054026C2F83E00E94DE006C2F8DE00E94BB
:1017B000DE008AE092E00E946E0380910801909121
:1017C00009010E94700384E192E00E946E038091FF
:1017D0000201909103010E94700381E292E00E9455
:1017E0006E0380911001909111010E9470038CE2B0
:1017F00092E00E946E0380919102909192020E9469
:10180000700388E392E00E946E036091040170E02F
:1018100090E080E04AE00E941C0388E291E00E9490
:101820000F0386E391E00E946E038091B00290E086
:101830000E94700382E492E00E946E0383E00E94A3
:10184000B5000E94700382E492E00E946E0386E07D
:101850000E94B5000E94700380917D0281110E9458
:10186000D702FF91EF91DF91CF91BF91AF919F91FF
:101870008F917F916F915F914F913F912F911F9128
:101880000F91FF90EF90DF90CF90BF90AF909F901F
:101890008F907F906F905F904F900F900FBE0F9042
:1018A0001F901895C0915702C058DD0BCC0FDD1F5B
:1018B00020910001309101010090100102C0220F1F
:1018C000331F0A94E2F702C0D595C7952A95E2F72F
:1018D000D595C79524CFC0915702C058DD0BCC0FCA
:1018E000DD1F20911101EFCFC0915702C058DD0BD1
:1018F000CC0FDD1F0090000102C0D595C7950A945A
:10190000E2F7E6CFC0915702C058DD0BCC0FDD1FC8
:101910004091100150911101E4E055954795EA95E9
:10192000E1F7209100013091010101C0220F4A9599
:10193000EAF7C9CFC0915702C058DD0B40911001A2
:101940005091110155954795209100013091010169
:1019500002C0359527954A95E2F702C0D595C795FF
:101960002A95E2F7DCCEC0915702D0E0E7CF209174
:101970005702C0911001D0911101D595C795D59509
:10198000C7952058330B02C0D595C7952A95E2F725
:10199000CD2FDD0FDD0BC3CE209157022058330B26
:1019A000C0910001D0910101EECF2091570220910A
:1019B00010013091110144E0359527954A95E1F7E2
:1019C000C0910001D091010102C0CC0FDD1F2A950A
:1019D000E2F7DECF209157022058330BC22FD22FCF
:1019E000DD0FDD0B9CCE009759F091958195910903
:1019F00002C0D595C7958A95E2F7C093B300A8CEEB
:101A0000C093B300A5CEEAEBF2E01382128288EE17
:101A100093E0A0E0B0E084839583A683B7838AE156
:101A200091E09183808385EC90E09587848784ECB6
:101A300090E09787868780EC90E0918B808B81EC9B
:101A400090E0938B828B82EC90E0958B848B86EC7C
:101A500090E0978B868B118E128E138E148E809150
:101A600010019091110190937C0380937B03E9E630
:101A7000F3E082E0808349E150E060E070E0418380
:101A800052836383748381E0858386831782108603
:101A90001186128613861486158616861786108A76
:101AA000118AE7E5F3E093E19083418352836383F6
:101AB0007483858386831782108611861286138627
:101AC0001486158616861786108A118A08957894CA
:101AD00084B5826084BD84B5816084BD85B5826033
:101AE00085BD85B5816085BD80916E0081608093E4
:101AF0006E0010928100809181008260809381004D
:101B0000809181008160809381008091800081605C
:101B1000809380008091B10084608093B1008091B7
:101B2000B00081608093B00080917A0084608093DF
:101B30007A0080917A00826080937A0080917A00A6
:101B4000816080937A0080917A00806880937A0027
:101B50001092C10061E08DE00E940C0161E087E01D
:101B60000E940C0161E088E00E940C0161E08CE0C1
:101B70000E940C0161E08AE00E940C0161E083E0B8
:101B80000E940C0161E085E00E940C0161E084E0AC
:101B90000E940C0161E086E00E940C0162E082E09C
:101BA0000E940C0162E083E10E940C0189E693E04F
:101BB0000E94AB0287E593E00E94AB0261E08BE0FC
:101BC0000E940C018091B6008F798093B6008091BD
:101BD000B00083608093B0008091B100877F8093D4
:101BE000B1008091B0008F7B80688093B0008091BD
:101BF000B0008F7C8093B0008091B100887F8160BD
:101C00008093B1001092B300F89480918100877E98
:101C1000886080938100809180008C7F8093800019
:101C200080918100887F81608093810020911001E4
:101C300030911101032E000C440B550B60E074E24F
:101C400084EF90E00E94CB113093890020938800AC
:101C500080916F00826080936F0078940E94E90207
:101C6000CCE5D2E00CE712E0CC24CA94DC2CE12CC9
:101C7000F12C0E947311A70196010E94CB11699368
:101C80007993882799274AE00E941C030C171D07A7
:101C900081F7CC24CA9463E0D62EE12CF12C812C60
:101CA00074E2972E74EFA72EB12C612C77247394D5
:101CB000C1E00E944801633371058105910508F474
:101CC00089C28AEB92E00E94B201181619060CF044
:101CD0006DC08AEB92E00E949001803379F480918C
:101CE000B0028C278093B00286E391E00E946E03DD
:101CF0008091B00290E00E94A00358C0813361F44B
:101D0000809107018C278093070183E491E00E9472
:101D10006E0380910701EECF823351F482E591E0AA
:101D20000E946E0380917D028C2780937D02E2CF1A
:101D3000833351F483E691E00E946E0380917C022C
:101D40008C2780937C02D6CF843371F48CE791E0AA
:101D50000E946E0380910501909106010197909376
:101D6000060180930501C7CF853351F48CE791E0DC
:101D70000E946E0380910501909106010196EFCFBC
:101D8000813609F077C18BE891E00E946E03809163
:101D90009102909192020E94A003809191029091F1
:101DA00092020196909392028093910289E693E0C9
:101DB0000E94610287E593E00E94610280917003B6
:101DC000811117C080917203882399F08BEA91E00A
:101DD0000E946E0380919002882309F4ACC1809127
:101DE0007B0390917C0390931101809310011092DA
:101DF000900280915E0381110AC080916003882364
:101E000031F085EC91E00E9460030E94D70280913E
:101E10008E028F5F843008F092C180938E024091D1
:101E20008E02842F90E0880F991FFC01E356FD4F2E
:101E30002081318182589D4FFC01318320834E30B7
:101E400008F04E504770406440937C0080917A00C7
:101E5000806480937A0080917A0086FDFCCF609147
:101E600078007091790080918E0290E0AB01421B66
:101E7000530B57FF03C05195419551094531510509
:101E80000CF09B01880F991FFC01E356FD4F318335
:101E9000208320910E0130910F012090AD023090EF
:101EA000AE02032C000C44085508A0919D02B0918D
:101EB0009E02032E000C440B550B221933094409D2
:101EC00055090E94F511A70196010E94CB11220D20
:101ED000331D441D551D30939C0220939B0220917D
:101EE0000C0130910D012090990230909A02032C40
:101EF000000C44085508A0919F02B091A002032E47
:101F0000000C440B550B22193309440955090E9452
:101F1000F511A70196010E94CB11220D331D441D1E
:101F2000551D309398022093970220910A01309119
:101F30000B012090950230909602032C000C44086F
:101F40005508A091A102B091A202032E000C440BEF
:101F5000550B22193309440955090E94F511A701AF
:101F600096010E94CB11220D331D441D551D309347
:101F700094022093930210915E0380917003882352
:101F800009F4F0C08091730390917403A0917503DC
:101F9000B091760340917703509178036091790373
:101FA00070917A03841B950BA60BB70B843F91406D
:101FB000A105B105D0F0A091A302B091A40227E041
:101FC00030E00E944412A70196010E94CB11309389
:101FD000920220939102C0939002809110019091FF
:101FE000110190937C0380937B03112309F4F2C0C9
:101FF0008091610390916203A0916303B0916403A7
:102000004091650350916603609167037091680386
:10201000841B950BA60BB70B843F9140A105B1051E
:1020200008F4D8C00091080110910901A091A30201
:10203000B091A40220EC31E00E944412A701960165
:102040000E94CB11BA01A901405C5F4F6F4F7F4FD7
:10205000CA01801B910B97FF03C09195819591094F
:1020600045970CF08A011093090100930801C09371
:102070008F02B0C0833781F48BE891E00E946E0339
:1020800080919102909192020E94A003809191020E
:1020900090919202019786CE8A3739F480E490E0DD
:1020A000909309018093080124C0E7E4F0E08837A9
:1020B00009F453C0833619F485E590E0F1CFE9E6E1
:1020C000F0E0863709F449C0823609F040C07092CA
:1020D0000901609208018BE991E00E946E038091F2
:1020E0000801909109010E94A00370920901609279
:1020F00008018BE991E00E946E03809108019091A4
:102100000901F9CD8BE191E0CBCF8C3219F48CE74A
:1021100091E0C6CF8A3631F480910801909109018F
:102120000196BECF8B3609F041CE80910801909187
:1021300009010197B5CF81E00E94AE035ACE1092FB
:102140008E026DCE61E083E00E940C0173C08E367A
:10215000C9F28D36D1F6E0E4F1E0F0930901E093A5
:102160000801C7CF111144CF809110019091110146
:1021700090937C0380937B03A091A302B091A4026F
:102180009D01281B390B37FF03C03195219531097B
:10219000253131050CF4DC01B0931101A09310013D
:1021A0008A179B07B9F020E03FE30E944412A70181
:1021B00096010E94CB113F5F4F4F5F4F032E000CE3
:1021C000440B550BC501B4010E94CB11309389001B
:1021D000209388008EED91E00E9460030E944801E8
:1021E0004AE00E941C030E94480161327F4B8240FA
:1021F000910540F060E08BE00E940C0188EE91E0D8
:102200000E9460038091B002882309F49BCF60E0B4
:1022100083E00E940C0186E00E94B500892B51F0FA
:102220008091AF02811106C0C093AF0281EF91E0AF
:102230000E94600380E090E0892B09F43ACD0E946F
:10224000BE01882309F434CD0E94000031CD8F9265
:102250009F92AF92BF92CF92DF92EF92FF92CF9375
:10226000DF93EC01688179818A819B816115710519
:102270008105910521F464E279ED8BE597E02DE18C
:1022800033EF41E050E00E94CB1149015A019B011C
:10229000AC01A7EAB1E40E94EA116B017C01ACEE4B
:1022A000B4EFA50194010E94F811C60ED71EE81ED6
:1022B000F91EF7FE06C081E0C81AD108E10880E8DF
:1022C000F80AC882D982EA82FB82C701B6019F77E9
:1022D000DF91CF91FF90EF90DF90CF90BF90AF90C4
:1022E0009F908F9008958F929F92AF92BF92CF92BE
:1022F000DF92EF92FF926091120170911301809131
:10230000140190911501611571058105910521F464
:1023100064E279ED8BE597E02DE133EF41E050E0A9
:102320000E94CB1149015A019B01AC01A7EAB1E41B
:102330000E94EA116B017C01ACEEB4EFA50194019F
:102340000E94F811C60ED71EE81EF91EF7FE06C041
:1023500081E0C81AD108E10880E8F80AC0921201A9
:10236000D0921301E0921401F0921501C701B60159
:102370009F77FF90EF90DF90CF90BF90AF909F90AE
:102380008F9008956093120170931301809314014C
:10239000909315010895052E97FB1EF400940E945A
:1023A000E21157FD07D00E94FD1107FC03D04EF447
:1023B0000C94E21150954095309521953F4F4F4F29
:1023C0005F4F089590958095709561957F4F8F4FE1
:1023D0009F4F08950E941F12A59F900DB49F900DCE
:1023E000A49F800D911D11240895B7FF0C94EA114C
:1023F0000E94EA11821B930B0895A1E21A2EAA1BD8
:10240000BB1BFD010DC0AA1FBB1FEE1FFF1FA217A4
:10241000B307E407F50720F0A21BB30BE40BF50BA1
:10242000661F771F881F991F1A9469F7609570952A
:10243000809590959B01AC01BD01CF010895A29FAD
:10244000B001B39FC001A39F700D811D1124911D88
:10245000B29F700D811D1124911D0895DB018F9392
:102460009F930E94EA11BF91AF91A29F800D911D91
:10247000A39F900DB29F900D11240895EE0FFF1FA2
:102480000590F491E02D09940E941F12B7FF089562
:0A249000821B930B0895F894FFCF10
:10249A00000106000C0A00010001630063006300EA
:1024AA0000400100000000000000F4015401810115
:1024BA004102B2019001A4010D0A0050524F475245
:1024CA00414D2D3A20006973436C6F636B4F7574ED
:1024DA003A20006973436C6F636B696E67496E3AA1
:1024EA00200069734379636C654C464F4D6F646590
:1024FA003A200069734175746F4379636C65507251
:10250A006F6772616D4D6F64653A20006379636C21
:10251A006562797465506F773A20006D6574616DF4
:10252A006F7270686F7365733A2000656E76656CBA
:10253A006F706552657365743A20004C6566744223
:10254A007574746F6E207761732072656C65617340
:10255A006564202D005269676874427574746F6EE1
:10256A00207761732072656C6561736564006D69BB
:10257A006C6C697328292000656E642064656D6F30
:10258A00002A2A2A2A434C4F434B205245434549A5
:10259A005645442A2A2A2A2A2A00656E7620527328
:1025AA00743A20002D205643415F547970653A20D1
:1025BA00002D20535F524154453A20002D204D658D
:1025CA0074616D50683A20002D2020507220233A01
:1025DA002000726563696269656E646F2072656C5A
:0425EA006F6A3A00DA
:00000001FF
